{
  "contractName": "IP",
  "abi": [
    {
      "inputs": [],
      "stateMutability": "payable",
      "type": "constructor",
      "payable": true
    },
    {
      "anonymous": false,
      "inputs": [
        {
          "indexed": true,
          "internalType": "address",
          "name": "owner",
          "type": "address"
        },
        {
          "indexed": true,
          "internalType": "address",
          "name": "spender",
          "type": "address"
        },
        {
          "indexed": false,
          "internalType": "uint256",
          "name": "value",
          "type": "uint256"
        }
      ],
      "name": "Approval",
      "type": "event"
    },
    {
      "anonymous": false,
      "inputs": [
        {
          "indexed": false,
          "internalType": "uint256",
          "name": "amountCurrency",
          "type": "uint256"
        },
        {
          "indexed": false,
          "internalType": "uint256",
          "name": "amountTokens",
          "type": "uint256"
        }
      ],
      "name": "AutoLiquify",
      "type": "event"
    },
    {
      "anonymous": false,
      "inputs": [
        {
          "indexed": false,
          "internalType": "bool",
          "name": "enabled",
          "type": "bool"
        }
      ],
      "name": "ContractSwapEnabledUpdated",
      "type": "event"
    },
    {
      "anonymous": false,
      "inputs": [
        {
          "indexed": true,
          "internalType": "address",
          "name": "previousOwner",
          "type": "address"
        },
        {
          "indexed": true,
          "internalType": "address",
          "name": "newOwner",
          "type": "address"
        }
      ],
      "name": "OwnershipTransferred",
      "type": "event"
    },
    {
      "anonymous": false,
      "inputs": [
        {
          "indexed": true,
          "internalType": "address",
          "name": "from",
          "type": "address"
        },
        {
          "indexed": true,
          "internalType": "address",
          "name": "to",
          "type": "address"
        },
        {
          "indexed": false,
          "internalType": "uint256",
          "name": "value",
          "type": "uint256"
        }
      ],
      "name": "Transfer",
      "type": "event"
    },
    {
      "inputs": [],
      "name": "DEAD",
      "outputs": [
        {
          "internalType": "address",
          "name": "",
          "type": "address"
        }
      ],
      "stateMutability": "view",
      "type": "function",
      "constant": true
    },
    {
      "inputs": [],
      "name": "_hasLiqBeenAdded",
      "outputs": [
        {
          "internalType": "bool",
          "name": "",
          "type": "bool"
        }
      ],
      "stateMutability": "view",
      "type": "function",
      "constant": true
    },
    {
      "inputs": [],
      "name": "_taxRates",
      "outputs": [
        {
          "internalType": "uint16",
          "name": "buyFee",
          "type": "uint16"
        },
        {
          "internalType": "uint16",
          "name": "sellFee",
          "type": "uint16"
        },
        {
          "internalType": "uint16",
          "name": "transferFee",
          "type": "uint16"
        }
      ],
      "stateMutability": "view",
      "type": "function",
      "constant": true
    },
    {
      "inputs": [],
      "name": "contractSwapEnabled",
      "outputs": [
        {
          "internalType": "bool",
          "name": "",
          "type": "bool"
        }
      ],
      "stateMutability": "view",
      "type": "function",
      "constant": true
    },
    {
      "inputs": [],
      "name": "dexRouter",
      "outputs": [
        {
          "internalType": "contract IRouter02",
          "name": "",
          "type": "address"
        }
      ],
      "stateMutability": "view",
      "type": "function",
      "constant": true
    },
    {
      "inputs": [],
      "name": "lpPair",
      "outputs": [
        {
          "internalType": "address",
          "name": "",
          "type": "address"
        }
      ],
      "stateMutability": "view",
      "type": "function",
      "constant": true
    },
    {
      "inputs": [],
      "name": "marketingWallet",
      "outputs": [
        {
          "internalType": "address payable",
          "name": "",
          "type": "address"
        }
      ],
      "stateMutability": "view",
      "type": "function",
      "constant": true
    },
    {
      "inputs": [],
      "name": "maxRoundtripTax",
      "outputs": [
        {
          "internalType": "uint256",
          "name": "",
          "type": "uint256"
        }
      ],
      "stateMutability": "view",
      "type": "function",
      "constant": true
    },
    {
      "inputs": [],
      "name": "maxTransferTaxes",
      "outputs": [
        {
          "internalType": "uint256",
          "name": "",
          "type": "uint256"
        }
      ],
      "stateMutability": "view",
      "type": "function",
      "constant": true
    },
    {
      "inputs": [],
      "name": "operator",
      "outputs": [
        {
          "internalType": "address",
          "name": "",
          "type": "address"
        }
      ],
      "stateMutability": "view",
      "type": "function",
      "constant": true
    },
    {
      "inputs": [],
      "name": "originalDeployer",
      "outputs": [
        {
          "internalType": "address",
          "name": "",
          "type": "address"
        }
      ],
      "stateMutability": "view",
      "type": "function",
      "constant": true
    },
    {
      "inputs": [],
      "name": "piContractSwapsEnabled",
      "outputs": [
        {
          "internalType": "bool",
          "name": "",
          "type": "bool"
        }
      ],
      "stateMutability": "view",
      "type": "function",
      "constant": true
    },
    {
      "inputs": [],
      "name": "piSwapPercent",
      "outputs": [
        {
          "internalType": "uint256",
          "name": "",
          "type": "uint256"
        }
      ],
      "stateMutability": "view",
      "type": "function",
      "constant": true
    },
    {
      "inputs": [],
      "name": "swapAmount",
      "outputs": [
        {
          "internalType": "uint256",
          "name": "",
          "type": "uint256"
        }
      ],
      "stateMutability": "view",
      "type": "function",
      "constant": true
    },
    {
      "inputs": [],
      "name": "swapThreshold",
      "outputs": [
        {
          "internalType": "uint256",
          "name": "",
          "type": "uint256"
        }
      ],
      "stateMutability": "view",
      "type": "function",
      "constant": true
    },
    {
      "inputs": [],
      "name": "taxesAreLocked",
      "outputs": [
        {
          "internalType": "bool",
          "name": "",
          "type": "bool"
        }
      ],
      "stateMutability": "view",
      "type": "function",
      "constant": true
    },
    {
      "inputs": [],
      "name": "tradingEnabled",
      "outputs": [
        {
          "internalType": "bool",
          "name": "",
          "type": "bool"
        }
      ],
      "stateMutability": "view",
      "type": "function",
      "constant": true
    },
    {
      "stateMutability": "payable",
      "type": "receive",
      "payable": true
    },
    {
      "inputs": [
        {
          "internalType": "address",
          "name": "newOwner",
          "type": "address"
        }
      ],
      "name": "transferOwner",
      "outputs": [],
      "stateMutability": "nonpayable",
      "type": "function"
    },
    {
      "inputs": [],
      "name": "renounceOwnership",
      "outputs": [],
      "stateMutability": "nonpayable",
      "type": "function"
    },
    {
      "inputs": [
        {
          "internalType": "address",
          "name": "newOperator",
          "type": "address"
        }
      ],
      "name": "setOperator",
      "outputs": [],
      "stateMutability": "nonpayable",
      "type": "function"
    },
    {
      "inputs": [],
      "name": "renounceOriginalDeployer",
      "outputs": [],
      "stateMutability": "nonpayable",
      "type": "function"
    },
    {
      "inputs": [],
      "name": "totalSupply",
      "outputs": [
        {
          "internalType": "uint256",
          "name": "",
          "type": "uint256"
        }
      ],
      "stateMutability": "pure",
      "type": "function",
      "constant": true
    },
    {
      "inputs": [],
      "name": "decimals",
      "outputs": [
        {
          "internalType": "uint8",
          "name": "",
          "type": "uint8"
        }
      ],
      "stateMutability": "pure",
      "type": "function",
      "constant": true
    },
    {
      "inputs": [],
      "name": "symbol",
      "outputs": [
        {
          "internalType": "string",
          "name": "",
          "type": "string"
        }
      ],
      "stateMutability": "pure",
      "type": "function",
      "constant": true
    },
    {
      "inputs": [],
      "name": "name",
      "outputs": [
        {
          "internalType": "string",
          "name": "",
          "type": "string"
        }
      ],
      "stateMutability": "pure",
      "type": "function",
      "constant": true
    },
    {
      "inputs": [],
      "name": "getOwner",
      "outputs": [
        {
          "internalType": "address",
          "name": "",
          "type": "address"
        }
      ],
      "stateMutability": "view",
      "type": "function",
      "constant": true
    },
    {
      "inputs": [
        {
          "internalType": "address",
          "name": "holder",
          "type": "address"
        },
        {
          "internalType": "address",
          "name": "spender",
          "type": "address"
        }
      ],
      "name": "allowance",
      "outputs": [
        {
          "internalType": "uint256",
          "name": "",
          "type": "uint256"
        }
      ],
      "stateMutability": "view",
      "type": "function",
      "constant": true
    },
    {
      "inputs": [
        {
          "internalType": "address",
          "name": "account",
          "type": "address"
        }
      ],
      "name": "balanceOf",
      "outputs": [
        {
          "internalType": "uint256",
          "name": "",
          "type": "uint256"
        }
      ],
      "stateMutability": "view",
      "type": "function",
      "constant": true
    },
    {
      "inputs": [
        {
          "internalType": "address",
          "name": "recipient",
          "type": "address"
        },
        {
          "internalType": "uint256",
          "name": "amount",
          "type": "uint256"
        }
      ],
      "name": "transfer",
      "outputs": [
        {
          "internalType": "bool",
          "name": "",
          "type": "bool"
        }
      ],
      "stateMutability": "nonpayable",
      "type": "function"
    },
    {
      "inputs": [
        {
          "internalType": "address",
          "name": "spender",
          "type": "address"
        },
        {
          "internalType": "uint256",
          "name": "amount",
          "type": "uint256"
        }
      ],
      "name": "approve",
      "outputs": [
        {
          "internalType": "bool",
          "name": "",
          "type": "bool"
        }
      ],
      "stateMutability": "nonpayable",
      "type": "function"
    },
    {
      "inputs": [],
      "name": "approveContractContingency",
      "outputs": [
        {
          "internalType": "bool",
          "name": "",
          "type": "bool"
        }
      ],
      "stateMutability": "nonpayable",
      "type": "function"
    },
    {
      "inputs": [
        {
          "internalType": "address",
          "name": "sender",
          "type": "address"
        },
        {
          "internalType": "address",
          "name": "recipient",
          "type": "address"
        },
        {
          "internalType": "uint256",
          "name": "amount",
          "type": "uint256"
        }
      ],
      "name": "transferFrom",
      "outputs": [
        {
          "internalType": "bool",
          "name": "",
          "type": "bool"
        }
      ],
      "stateMutability": "nonpayable",
      "type": "function"
    },
    {
      "inputs": [
        {
          "internalType": "address",
          "name": "newRouter",
          "type": "address"
        }
      ],
      "name": "setNewRouter",
      "outputs": [],
      "stateMutability": "nonpayable",
      "type": "function"
    },
    {
      "inputs": [
        {
          "internalType": "address",
          "name": "pair",
          "type": "address"
        },
        {
          "internalType": "bool",
          "name": "enabled",
          "type": "bool"
        }
      ],
      "name": "setLpPair",
      "outputs": [],
      "stateMutability": "nonpayable",
      "type": "function"
    },
    {
      "inputs": [
        {
          "internalType": "address",
          "name": "initializer",
          "type": "address"
        }
      ],
      "name": "setInitializer",
      "outputs": [],
      "stateMutability": "nonpayable",
      "type": "function"
    },
    {
      "inputs": [
        {
          "internalType": "address",
          "name": "account",
          "type": "address"
        }
      ],
      "name": "isExcludedFromFees",
      "outputs": [
        {
          "internalType": "bool",
          "name": "",
          "type": "bool"
        }
      ],
      "stateMutability": "view",
      "type": "function",
      "constant": true
    },
    {
      "inputs": [
        {
          "internalType": "address",
          "name": "account",
          "type": "address"
        }
      ],
      "name": "isExcludedFromProtection",
      "outputs": [
        {
          "internalType": "bool",
          "name": "",
          "type": "bool"
        }
      ],
      "stateMutability": "view",
      "type": "function",
      "constant": true
    },
    {
      "inputs": [
        {
          "internalType": "address",
          "name": "account",
          "type": "address"
        },
        {
          "internalType": "bool",
          "name": "enabled",
          "type": "bool"
        }
      ],
      "name": "setExcludedFromFees",
      "outputs": [],
      "stateMutability": "nonpayable",
      "type": "function"
    },
    {
      "inputs": [
        {
          "internalType": "address",
          "name": "account",
          "type": "address"
        },
        {
          "internalType": "bool",
          "name": "enabled",
          "type": "bool"
        }
      ],
      "name": "setExcludedFromProtection",
      "outputs": [],
      "stateMutability": "nonpayable",
      "type": "function"
    },
    {
      "inputs": [],
      "name": "getCirculatingSupply",
      "outputs": [
        {
          "internalType": "uint256",
          "name": "",
          "type": "uint256"
        }
      ],
      "stateMutability": "view",
      "type": "function",
      "constant": true
    },
    {
      "inputs": [
        {
          "internalType": "address",
          "name": "account",
          "type": "address"
        }
      ],
      "name": "removeSniper",
      "outputs": [],
      "stateMutability": "nonpayable",
      "type": "function"
    },
    {
      "inputs": [
        {
          "internalType": "bool",
          "name": "_antiSnipe",
          "type": "bool"
        },
        {
          "internalType": "bool",
          "name": "_antiBlock",
          "type": "bool"
        }
      ],
      "name": "setProtectionSettings",
      "outputs": [],
      "stateMutability": "nonpayable",
      "type": "function"
    },
    {
      "inputs": [],
      "name": "lockTaxes",
      "outputs": [],
      "stateMutability": "nonpayable",
      "type": "function"
    },
    {
      "inputs": [
        {
          "internalType": "uint16",
          "name": "buyFee",
          "type": "uint16"
        },
        {
          "internalType": "uint16",
          "name": "sellFee",
          "type": "uint16"
        },
        {
          "internalType": "uint16",
          "name": "transferFee",
          "type": "uint16"
        }
      ],
      "name": "setTaxes",
      "outputs": [],
      "stateMutability": "nonpayable",
      "type": "function"
    },
    {
      "inputs": [
        {
          "internalType": "address payable",
          "name": "marketing",
          "type": "address"
        }
      ],
      "name": "setWallets",
      "outputs": [],
      "stateMutability": "nonpayable",
      "type": "function"
    },
    {
      "inputs": [
        {
          "internalType": "uint256",
          "name": "priceImpactInHundreds",
          "type": "uint256"
        }
      ],
      "name": "getTokenAmountAtPriceImpact",
      "outputs": [
        {
          "internalType": "uint256",
          "name": "",
          "type": "uint256"
        }
      ],
      "stateMutability": "view",
      "type": "function",
      "constant": true
    },
    {
      "inputs": [
        {
          "internalType": "uint256",
          "name": "thresholdPercent",
          "type": "uint256"
        },
        {
          "internalType": "uint256",
          "name": "thresholdDivisor",
          "type": "uint256"
        },
        {
          "internalType": "uint256",
          "name": "amountPercent",
          "type": "uint256"
        },
        {
          "internalType": "uint256",
          "name": "amountDivisor",
          "type": "uint256"
        }
      ],
      "name": "setSwapSettings",
      "outputs": [],
      "stateMutability": "nonpayable",
      "type": "function"
    },
    {
      "inputs": [
        {
          "internalType": "uint256",
          "name": "priceImpactSwapPercent",
          "type": "uint256"
        }
      ],
      "name": "setPriceImpactSwapAmount",
      "outputs": [],
      "stateMutability": "nonpayable",
      "type": "function"
    },
    {
      "inputs": [
        {
          "internalType": "bool",
          "name": "swapEnabled",
          "type": "bool"
        },
        {
          "internalType": "bool",
          "name": "priceImpactSwapEnabled",
          "type": "bool"
        }
      ],
      "name": "setContractSwapEnabled",
      "outputs": [],
      "stateMutability": "nonpayable",
      "type": "function"
    },
    {
      "inputs": [
        {
          "internalType": "address",
          "name": "router",
          "type": "address"
        },
        {
          "internalType": "address",
          "name": "presale",
          "type": "address"
        }
      ],
      "name": "excludePresaleAddresses",
      "outputs": [],
      "stateMutability": "nonpayable",
      "type": "function"
    },
    {
      "inputs": [],
      "name": "enableTrading",
      "outputs": [],
      "stateMutability": "nonpayable",
      "type": "function"
    },
    {
      "inputs": [],
      "name": "sweepContingency",
      "outputs": [],
      "stateMutability": "nonpayable",
      "type": "function"
    },
    {
      "inputs": [
        {
          "internalType": "address[]",
          "name": "accounts",
          "type": "address[]"
        },
        {
          "internalType": "uint256[]",
          "name": "amounts",
          "type": "uint256[]"
        }
      ],
      "name": "multiSendTokens",
      "outputs": [],
      "stateMutability": "nonpayable",
      "type": "function"
    }
  ],
  "bytecode": "0x60006002556008805460ff1916600117905560e0604052610258608081905260a081905260c052600980546502580258025865ffffffffffff19909116179055600c8054600161ff0160a01b03191673827cd279670fda424223466de0d460035e14855d179055600a60108190556011805461ffff19169055601280546001600160a01b031990811633908117835560138054909216179055620000a391620006e3565b620000b3906305f5e100620006fb565b601280546001600160a01b0390811660009081526020819052604081209390935581541691907fddf252ad1be2c89b69c2b068fc378daa952ba7f163c4a11628f55a4df523b3ef906200010890600a620006e3565b62000118906305f5e100620006fb565b60405190815260200160405180910390a3466038036200016057600a8054610100600160a81b0319167410ed43c718714eb63d5aa57b78b54704e256024e001790556200025b565b466061036200019757600a8054610100600160a81b03191674d99d1c33f9fc3444f8101754abc46c52416550d1001790556200025b565b4660011480620001a75750466004145b80620001b35750466003145b15620001e757600a8054610100600160a81b031916747a250d5630b4cf539739df2c5dacb4c659f2488d001790556200025b565b4661a86a036200021f57600a8054610100600160a81b0319167460ae616a2155ee3d9a68541ba4544862310933d4001790556200025b565b4660fa036200025657600a8054610100600160a81b03191674f491e7b69e4244ad4002bc14e878a34207e38c29001790556200025b565b600080fd5b600a60019054906101000a90046001600160a01b03166001600160a01b031663c45a01556040518163ffffffff1660e01b8152600401602060405180830381865afa158015620002af573d6000803e3d6000fd5b505050506040513d601f19601f82011682018060405250810190620002d591906200071d565b6001600160a01b031663c9c65396600a60019054906101000a90046001600160a01b03166001600160a01b031663ad5c46486040518163ffffffff1660e01b8152600401602060405180830381865afa15801562000337573d6000803e3d6000fd5b505050506040513d601f19601f820116820180604052508101906200035d91906200071d565b6040516001600160e01b031960e084901b1681526001600160a01b0390911660048201523060248201526044016020604051808303816000875af1158015620003aa573d6000803e3d6000fd5b505050506040513d601f19601f82011682018060405250810190620003d091906200071d565b600b80546001600160a01b0319166001600160a01b039283169081179091556000908152600160208190526040909120805460ff19169091179055601254600a546200042a929182169161010090910416600019620004cd565b600a546200044b90309061010090046001600160a01b0316600019620004cd565b601280546001600160a01b0390811660009081526006602090815260408083208054600160ff19918216811790925530855282852080548216831790557f1aecba4ebe7a4e0673e4891b2b092b2228e4322380b579fb494fad3da8586e2280548216831790559554909416835260049091529020805490921617905562000748565b6001600160a01b0383166200051f5760405162461bcd60e51b815260206004820152601360248201527245524332303a205a65726f204164647265737360681b60448201526064015b60405180910390fd5b6001600160a01b0382166200056d5760405162461bcd60e51b815260206004820152601360248201527245524332303a205a65726f204164647265737360681b604482015260640162000516565b6001600160a01b0383811660008181526003602090815260408083209487168084529482529182902085905590518481527f8c5be1e5ebec7d5bd14f71427d1e84f3dd0314c0f7b2291e5b200ac8c7c3b925910160405180910390a3505050565b634e487b7160e01b600052601160045260246000fd5b600181815b8085111562000625578160001904821115620006095762000609620005ce565b808516156200061757918102915b93841c9390800290620005e9565b509250929050565b6000826200063e57506001620006dd565b816200064d57506000620006dd565b8160018114620006665760028114620006715762000691565b6001915050620006dd565b60ff841115620006855762000685620005ce565b50506001821b620006dd565b5060208310610133831016604e8410600b8410161715620006b6575081810a620006dd565b620006c28383620005e4565b8060001904821115620006d957620006d9620005ce565b0290505b92915050565b6000620006f460ff8416836200062d565b9392505050565b6000816000190483118215151615620007185762000718620005ce565b500290565b6000602082840312156200073057600080fd5b81516001600160a01b0381168114620006f457600080fd5b61346580620007586000396000f3fe6080604052600436106102ce5760003560e01c80634fbee1931161017b5780638a8c523c116100d7578063dd62ed3e11610085578063dd62ed3e146108d9578063eafb5a3c1461091f578063eb50e70e1461093f578063ee5d9c2d1461095f578063fb78680d14610974578063fdb78c0e14610994578063feadde9c146109b557600080fd5b80638a8c523c1461080957806395d89b411461081e578063a9059cbb14610849578063b1b08f7114610869578063b3ab15fb1461087f578063b7df8b361461089f578063bfc2fc35146108b957600080fd5b8063715018a611610134578063715018a61461074c57806375f0a8741461076157806378648edf1461078157806380c581d11461079657806381cf58a9146107b6578063893d20e8146107d65780638a63bd9b146107f457600080fd5b80634fbee1931461067457806350a8e016146106ad578063570ca735146106cc578063590ffdce146106ec5780635c24b0741461070c57806370a082311461072c57600080fd5b8063285777511161022a57806339a05902116101e357806339a05902146105af578063452ed4f1146105c457806346ea7ac8146105e45780634ada218b146105fa5780634bbb93eb146106145780634e718e48146106345780634fb2e45d1461065457600080fd5b806328577751146105075780632b112e491461051d5780632e8fa82114610532578063313ce5671461054857806332cde6641461056f57806333251a0b1461058f57600080fd5b806307dd79e01161028757806307dd79e01461040f578063095ea7b3146104395780630dcbcf1c1461045957806313b4a7f41461049257806318160ddd146104b257806323b872dd146104c75780632610eaca146104e757600080fd5b806303fd2a45146102da5780630445b6671461030d578063044df72614610331578063069d955f1461035357806306fdde03146103a95780630758d924146103ea57600080fd5b366102d557005b600080fd5b3480156102e657600080fd5b506102f061dead81565b6040516001600160a01b0390911681526020015b60405180910390f35b34801561031957600080fd5b50610323600d5481565b604051908152602001610304565b34801561033d57600080fd5b5061035161034c366004612cc1565b6109d5565b005b34801561035f57600080fd5b506009546103849061ffff808216916201000081048216916401000000009091041683565b6040805161ffff94851681529284166020840152921691810191909152606001610304565b3480156103b557600080fd5b5060408051808201909152600f81526e49736c616e6420506172616469736560881b60208201525b6040516103049190612cfa565b3480156103f657600080fd5b50600a546102f09061010090046001600160a01b031681565b34801561041b57600080fd5b50600a546104299060ff1681565b6040519015158152602001610304565b34801561044557600080fd5b50610429610454366004612d5d565b610a79565b34801561046557600080fd5b50610429610474366004612d89565b6001600160a01b031660009081526005602052604090205460ff1690565b34801561049e57600080fd5b506103516104ad366004612da6565b610a90565b3480156104be57600080fd5b50610323610c30565b3480156104d357600080fd5b506104296104e2366004612dd4565b610c77565b3480156104f357600080fd5b50610351610502366004612eeb565b610cef565b34801561051357600080fd5b5061032360105481565b34801561052957600080fd5b50610323610e6c565b34801561053e57600080fd5b50610323600e5481565b34801561055457600080fd5b5061055d610eb1565b60405160ff9091168152602001610304565b34801561057b57600080fd5b5061035161058a366004612fc4565b610edf565b34801561059b57600080fd5b506103516105aa366004612d89565b61103e565b3480156105bb57600080fd5b506103516110d1565b3480156105d057600080fd5b50600b546102f0906001600160a01b031681565b3480156105f057600080fd5b5061032361057881565b34801561060657600080fd5b506011546104299060ff1681565b34801561062057600080fd5b5061032361062f366004613007565b61110d565b34801561064057600080fd5b5061035161064f366004613007565b61113f565b34801561066057600080fd5b5061035161066f366004612d89565b6111b8565b34801561068057600080fd5b5061042961068f366004612d89565b6001600160a01b031660009081526006602052604090205460ff1690565b3480156106b957600080fd5b5060115461042990610100900460ff1681565b3480156106d857600080fd5b506014546102f0906001600160a01b031681565b3480156106f857600080fd5b50610351610707366004613020565b6112e1565b34801561071857600080fd5b50610351610727366004612d89565b611336565b34801561073857600080fd5b50610323610747366004612d89565b6113e3565b34801561075857600080fd5b506103516113fe565b34801561076d57600080fd5b50600c546102f0906001600160a01b031681565b34801561078d57600080fd5b5061035161148d565b3480156107a257600080fd5b506103516107b1366004613020565b6114c6565b3480156107c257600080fd5b506013546102f0906001600160a01b031681565b3480156107e257600080fd5b506012546001600160a01b03166102f0565b34801561080057600080fd5b5061042961161c565b34801561081557600080fd5b5061035161166e565b34801561082a57600080fd5b50604080518082019091526002815261049560f41b60208201526103dd565b34801561085557600080fd5b50610429610864366004612d5d565b611869565b34801561087557600080fd5b506103236103e881565b34801561088b57600080fd5b5061035161089a366004612d89565b611880565b3480156108ab57600080fd5b50600f546104299060ff1681565b3480156108c557600080fd5b506103516108d4366004612cc1565b61192c565b3480156108e557600080fd5b506103236108f4366004612da6565b6001600160a01b03918216600090815260036020908152604080832093909416825291909152205490565b34801561092b57600080fd5b5061035161093a366004612d89565b6119b9565b34801561094b57600080fd5b5061035161095a366004612d89565b611d52565b34801561096b57600080fd5b50610351611d9e565b34801561098057600080fd5b5061035161098f36600461303e565b611e5c565b3480156109a057600080fd5b50600c5461042990600160a81b900460ff1681565b3480156109c157600080fd5b506103516109d0366004613020565b61206c565b6012546001600160a01b03163314610a085760405162461bcd60e51b81526004016109ff90613070565b60405180910390fd5b60115460405163efbdbabd60e01b815283151560048201528215156024820152620100009091046001600160a01b03169063efbdbabd906044015b600060405180830381600087803b158015610a5d57600080fd5b505af1158015610a71573d6000803e3d6000fd5b505050505050565b6000610a863384846120c1565b5060015b92915050565b6012546001600160a01b03163314610aba5760405162461bcd60e51b81526004016109ff90613070565b60085460ff16610ac957600080fd5b6001600160a01b0382163014801590610aeb57506001600160a01b0381163014155b8015610b055750600b546001600160a01b03838116911614155b8015610b1f5750600b546001600160a01b03828116911614155b610b595760405162461bcd60e51b815260206004820152600b60248201526a253ab9ba103237b713ba1760a91b60448201526064016109ff565b806001600160a01b0316826001600160a01b031603610bbb576001600160a01b03811660009081526004602090815260408083208054600160ff19918216811790925560079093529220805490911682179055610bb79082906112e1565b5050565b6001600160a01b0382811660008181526004602090815260408083208054600160ff19918216811790925595871680855282852080548816831790559484526007909252808320805486168317905592825291902080549092168117909155610c259083906112e1565b610bb78160016112e1565b6000610c3e6012600a613195565b610c4c906305f5e1006131a4565b600003610c5857600080fd5b610c646012600a613195565b610c72906305f5e1006131a4565b905090565b6001600160a01b038316600090815260036020908152604080832033845290915281205460001914610cdc576001600160a01b038416600090815260036020908152604080832033845290915281208054849290610cd69084906131c3565b90915550505b610ce784848461216e565b949350505050565b6012546001600160a01b03163314610d195760405162461bcd60e51b81526004016109ff90613070565b8051825114610d625760405162461bcd60e51b81526020600482015260156024820152742632b733ba3439903237903737ba1036b0ba31b41760591b60448201526064016109ff565b60005b82518161ffff161015610e6757610d7e6012600a613195565b828261ffff1681518110610d9457610d946131d6565b6020026020010151610da691906131a4565b610daf336113e3565b1015610df25760405162461bcd60e51b81526020600482015260126024820152712737ba1032b737bab3b4103a37b5b2b7399760711b60448201526064016109ff565b610e5433848361ffff1681518110610e0c57610e0c6131d6565b60200260200101516012600a610e229190613195565b858561ffff1681518110610e3857610e386131d6565b6020026020010151610e4a91906131a4565b600080600161244c565b5080610e5f816131ec565b915050610d65565b505050565b6000610e7860006113e3565b610e8361dead6113e3565b610e8d919061320d565b610e996012600a613195565b610ea7906305f5e1006131a4565b610c7291906131c3565b6000610ebf6012600a613195565b610ecd906305f5e1006131a4565b600003610ed957600080fd5b50601290565b6012546001600160a01b03163314610f095760405162461bcd60e51b81526004016109ff90613070565b600a5460ff1615610f505760405162461bcd60e51b81526020600482015260116024820152702a30bc32b99030b932903637b1b5b2b21760791b60448201526064016109ff565b6103e88161ffff161115610fa05760405162461bcd60e51b815260206004820152601760248201527621b0b73737ba1032bc31b2b2b21036b0bc34b6bab6b99760491b60448201526064016109ff565b610578610fad8385613220565b61ffff161115610fff5760405162461bcd60e51b815260206004820181905260248201527f43616e6e6f742065786365656420726f756e6474726970206d6178696d756d2e60448201526064016109ff565b6009805461ffff94851663ffffffff199091161762010000938516939093029290921765ffff0000000019166401000000009190931602919091179055565b6012546001600160a01b031633146110685760405162461bcd60e51b81526004016109ff90613070565b6011546040516333251a0b60e01b81526001600160a01b03838116600483015262010000909204909116906333251a0b90602401600060405180830381600087803b1580156110b657600080fd5b505af11580156110ca573d6000803e3d6000fd5b5050505050565b6013546001600160a01b031633146110fb5760405162461bcd60e51b81526004016109ff90613242565b601380546001600160a01b0319169055565b600b5460009061271090839061112b906001600160a01b03166113e3565b61113591906131a4565b610a8a919061328a565b6012546001600160a01b031633146111695760405162461bcd60e51b81526004016109ff90613070565b60968111156111b35760405162461bcd60e51b815260206004820152601660248201527521b0b73737ba1039b2ba1030b137bb329018971a929760511b60448201526064016109ff565b601055565b6012546001600160a01b031633146111e25760405162461bcd60e51b81526004016109ff90613070565b6001600160a01b0381166112085760405162461bcd60e51b81526004016109ff906132ac565b61deac196001600160a01b038216016112335760405162461bcd60e51b81526004016109ff906132ac565b60125461124a906001600160a01b031660006112e1565b6112558160016112e1565b60125460009061126d906001600160a01b03166113e3565b111561128f5760125461128d906001600160a01b031682610e4a826113e3565b505b601280546001600160a01b038381166001600160a01b0319831681179093556040519116919082907f8be0079c531659141344cd1fd0a4f28419497f9722a3daafe3b4186f6b6457e090600090a35050565b6012546001600160a01b0316331461130b5760405162461bcd60e51b81526004016109ff90613070565b6001600160a01b03919091166000908152600660205260409020805460ff1916911515919091179055565b6012546001600160a01b031633146113605760405162461bcd60e51b81526004016109ff90613070565b60115460ff161561137057600080fd5b306001600160a01b038216036113b95760405162461bcd60e51b815260206004820152600e60248201526d21b0b713ba1031329039b2b6331760911b60448201526064016109ff565b601180546001600160a01b03909216620100000262010000600160b01b0319909216919091179055565b6001600160a01b031660009081526020819052604090205490565b6012546001600160a01b031633146114285760405162461bcd60e51b81526004016109ff90613070565b60125461143f906001600160a01b031660006112e1565b601280546001600160a01b031981169091556040516001600160a01b039091169060009082907f8be0079c531659141344cd1fd0a4f28419497f9722a3daafe3b4186f6b6457e0908390a350565b6012546001600160a01b031633146114b75760405162461bcd60e51b81526004016109ff90613070565b600a805460ff19166001179055565b6012546001600160a01b031633146114f05760405162461bcd60e51b81526004016109ff90613070565b80611563576001600160a01b03828116600081815260016020526040808220805460ff1916905560115490516380c581d160e01b815260048101939093526024830191909152620100009004909116906380c581d190604401600060405180830381600087803b158015610a5d57600080fd5b600254156115bd576203f4806002544261157d91906131c3565b116115bd5760405162461bcd60e51b815260206004820152601060248201526f332044617920636f6f6c646f776e2e2160801b60448201526064016109ff565b6001600160a01b03828116600081815260016020819052604091829020805460ff1916821790554260025560115491516380c581d160e01b815260048101939093526024830152620100009004909116906380c581d190604401610a43565b6012546000906001600160a01b031633146116495760405162461bcd60e51b81526004016109ff90613070565b600a5461166890309061010090046001600160a01b03166000196120c1565b50600190565b6012546001600160a01b031633146116985760405162461bcd60e51b81526004016109ff90613070565b60115460ff16156116e65760405162461bcd60e51b815260206004820152601860248201527754726164696e6720616c726561647920656e61626c65642160401b60448201526064016109ff565b601154610100900460ff166117385760405162461bcd60e51b81526020600482015260186024820152772634b8bab4b234ba3c9036bab9ba1031329030b23232b21760411b60448201526064016109ff565b6011546201000090046001600160a01b0316611768576011805462010000600160b01b0319163062010000021790555b601154600b54604051631b04570d60e21b81526001600160a01b03918216600482015263ffffffff4316602482015267ffffffffffffffff4216604482015260126064820152620100009092041690636c115c3490608401600060405180830381600087803b1580156117da57600080fd5b505af19250505080156117eb575060015b506011805460ff19908116600117909155600880549091169055600b546127109061181e906001600160a01b03166113e3565b61182990600a6131a4565b611833919061328a565b600d55600b546127109061184f906001600160a01b03166113e3565b61185a90601e6131a4565b611864919061328a565b600e55565b600061187633848461216e565b5060019392505050565b6013546001600160a01b031633146118aa5760405162461bcd60e51b81526004016109ff90613242565b6014546001600160a01b031680156118e7576001600160a01b0381166000908152600460205260408120805460ff191690556118e79082906112e1565b601480546001600160a01b0319166001600160a01b0384169081179091556000908152600460205260409020805460ff19166001908117909155610bb79083906112e1565b6012546001600160a01b031633146119565760405162461bcd60e51b81526004016109ff90613070565b600c805460ff60a81b1916600160a81b84151590810291909117909155600f805460ff19168315151790556040519081527f7b0a47d3b0234280b6c9213c5bbff44c8b6001bea7770b3950280f9141053257906020015b60405180910390a15050565b6012546001600160a01b031633146119e35760405162461bcd60e51b81526004016109ff90613070565b601154610100900460ff1615611a3b5760405162461bcd60e51b815260206004820152601e60248201527f43616e6e6f74206368616e6765206166746572206c69717569646974792e000060448201526064016109ff565b60008190506000816001600160a01b031663c45a01556040518163ffffffff1660e01b8152600401602060405180830381865afa158015611a80573d6000803e3d6000fd5b505050506040513d601f19601f82011682018060405250810190611aa49190613309565b6001600160a01b031663e6a4390530846001600160a01b031663ad5c46486040518163ffffffff1660e01b8152600401602060405180830381865afa158015611af1573d6000803e3d6000fd5b505050506040513d601f19601f82011682018060405250810190611b159190613309565b6040516001600160e01b031960e085901b1681526001600160a01b03928316600482015291166024820152604401602060405180830381865afa158015611b60573d6000803e3d6000fd5b505050506040513d601f19601f82011682018060405250810190611b849190613309565b90506001600160a01b038116611cfd57816001600160a01b031663c45a01556040518163ffffffff1660e01b8152600401602060405180830381865afa158015611bd2573d6000803e3d6000fd5b505050506040513d601f19601f82011682018060405250810190611bf69190613309565b6001600160a01b031663c9c6539630846001600160a01b031663ad5c46486040518163ffffffff1660e01b8152600401602060405180830381865afa158015611c43573d6000803e3d6000fd5b505050506040513d601f19601f82011682018060405250810190611c679190613309565b6040516001600160e01b031960e085901b1681526001600160a01b039283166004820152911660248201526044016020604051808303816000875af1158015611cb4573d6000803e3d6000fd5b505050506040513d601f19601f82011682018060405250810190611cd89190613309565b600b80546001600160a01b0319166001600160a01b0392909216919091179055611d19565b600b80546001600160a01b0319166001600160a01b0383161790555b600a8054610100600160a81b0319166101006001600160a01b0385811682029290921792839055610e67923092919004166000196120c1565b6012546001600160a01b03163314611d7c5760405162461bcd60e51b81526004016109ff90613070565b600c80546001600160a01b0319166001600160a01b0392909216919091179055565b6012546001600160a01b03163314611dc85760405162461bcd60e51b81526004016109ff90613070565b601154610100900460ff1615611e205760405162461bcd60e51b815260206004820152601c60248201527f43616e6e6f742063616c6c206166746572206c69717569646974792e0000000060448201526064016109ff565b6012546040516001600160a01b03909116904780156108fc02916000818181858888f19350505050158015611e59573d6000803e3d6000fd5b50565b6012546001600160a01b03163314611e865760405162461bcd60e51b81526004016109ff90613070565b8284611e946012600a613195565b611ea2906305f5e1006131a4565b611eac91906131a4565b611eb6919061328a565b600d558082611ec76012600a613195565b611ed5906305f5e1006131a4565b611edf91906131a4565b611ee9919061328a565b600e819055600d541115611f495760405162461bcd60e51b815260206004820152602160248201527f5468726573686f6c642063616e6e6f742062652061626f766520616d6f756e746044820152601760f91b60648201526084016109ff565b600b5461271090611f62906001600160a01b03166113e3565b611f6d9060966131a4565b611f77919061328a565b600e541115611fd45760405162461bcd60e51b815260206004820152602360248201527f43616e6e6f742062652061626f766520312e3525206f662063757272656e742060448201526228249760e91b60648201526084016109ff565b620f4240611fe46012600a613195565b611ff2906305f5e1006131a4565b611ffc919061328a565b600e54101561201d5760405162461bcd60e51b81526004016109ff90613326565b620f424061202d6012600a613195565b61203b906305f5e1006131a4565b612045919061328a565b600d5410156120665760405162461bcd60e51b81526004016109ff90613326565b50505050565b6012546001600160a01b031633146120965760405162461bcd60e51b81526004016109ff90613070565b6001600160a01b03919091166000908152600560205260409020805460ff1916911515919091179055565b6001600160a01b0383166120e75760405162461bcd60e51b81526004016109ff90613374565b6001600160a01b03821661210d5760405162461bcd60e51b81526004016109ff90613374565b6001600160a01b0383811660008181526003602090815260408083209487168084529482529182902085905590518481527f8c5be1e5ebec7d5bd14f71427d1e84f3dd0314c0f7b2291e5b200ac8c7c3b925910160405180910390a3505050565b60006001600160a01b0384166121d45760405162461bcd60e51b815260206004820152602560248201527f45524332303a207472616e736665722066726f6d20746865207a65726f206164604482015264647265737360d81b60648201526084016109ff565b6001600160a01b0383166122365760405162461bcd60e51b815260206004820152602360248201527f45524332303a207472616e7366657220746f20746865207a65726f206164647260448201526265737360e81b60648201526084016109ff565b600082116122985760405162461bcd60e51b815260206004820152602960248201527f5472616e7366657220616d6f756e74206d7573742062652067726561746572206044820152687468616e207a65726f60b81b60648201526084016109ff565b6001600160a01b0384166000908152600160205260408120548190819060ff16156122c657600192506122f4565b6001600160a01b03861660009081526001602052604090205460ff16156122f057600191506122f4565b5060015b6122fe87876126ff565b156123505760115460ff166123505760405162461bcd60e51b815260206004820152601860248201527754726164696e67206e6f742079657420656e61626c65642160401b60448201526064016109ff565b811561243357600c54600160a01b900460ff1661243357600c54600160a81b900460ff16801561239957506001600160a01b03861660009081526007602052604090205460ff16155b80156123be57506001600160a01b03871660009081526007602052604090205460ff16155b156124335760006123ce306113e3565b9050600d54811061243157600e54600f5460ff161561241b57601054600b546127109190612404906001600160a01b03166113e3565b61240e91906131a4565b612418919061328a565b90505b808210612426578091505b61242f82612816565b505b505b61244187878786868661244c565b979650505050505050565b600061245887876126ff565b156124f25760115460405163ecd07a5360e01b81526001600160a01b038981166004830152888116602483015260448201889052600092620100009004169063ecd07a53906064016020604051808303816000875af19250505080156124db575060408051601f3d908101601f191682019092526124d8918101906133a1565b60015b6124e457600080fd5b9050806124f057600080fd5b505b6001600160a01b03871660009081526006602052604090205460019060ff168061253457506001600160a01b03871660009081526006602052604090205460ff165b1561253d575060005b6001600160a01b038816600090815260208190526040812080548892906125659084906131c3565b9091555060009050816125785786612584565b6125848987878a612a5a565b9050806000808a6001600160a01b03166001600160a01b0316815260200190815260200160002060008282546125ba919061320d565b92505081905550876001600160a01b0316896001600160a01b03167fddf252ad1be2c89b69c2b068fc378daa952ba7f163c4a11628f55a4df523b3ef8360405161260691815260200190565b60405180910390a3601154610100900460ff166126f0576126278989612b6f565b601154610100900460ff16158015612644575061264489896126ff565b801561266957506001600160a01b03891660009081526005602052604090205460ff16155b801561268e57506001600160a01b03881660009081526005602052604090205460ff16155b8015612698575083155b156126f05760405162461bcd60e51b815260206004820152602260248201527f5072652d6c6971756964697479207472616e736665722070726f74656374696f604482015261371760f11b60648201526084016109ff565b50600198975050505050505050565b6012546000906001600160a01b0384811691161480159061272e57506012546001600160a01b03838116911614155b801561274557506012546001600160a01b03163214155b801561276a57506001600160a01b03821660009081526004602052604090205460ff16155b801561278f57506001600160a01b03831660009081526004602052604090205460ff16155b80156127a657506001600160a01b03821661dead14155b80156127ba57506001600160a01b03821615155b80156127cf57506001600160a01b0383163014155b80156127ef57506011546001600160a01b03848116620100009092041614155b801561280f57506011546001600160a01b03838116620100009092041614155b9392505050565b600c805460ff60a01b1916600160a01b179055306000908152600360209081526040808320600a5461010090046001600160a01b031684529091529020546000191461288c57306000908152600360209081526040808320600a5461010090046001600160a01b03168452909152902060001990555b60408051600280825260608201835260009260208301908036833701905050905030816000815181106128c1576128c16131d6565b60200260200101906001600160a01b031690816001600160a01b031681525050600a60019054906101000a90046001600160a01b03166001600160a01b031663ad5c46486040518163ffffffff1660e01b8152600401602060405180830381865afa158015612934573d6000803e3d6000fd5b505050506040513d601f19601f820116820180604052508101906129589190613309565b8160018151811061296b5761296b6131d6565b6001600160a01b039283166020918202929092010152600a5460405163791ac94760e01b81526101009091049091169063791ac947906129b89085906000908690309042906004016133be565b600060405180830381600087803b1580156129d257600080fd5b505af19250505080156129e3575060015b6129ed5750612a4a565b600c546040516000916001600160a01b0316906188b890479084818181858888f193505050503d8060008114612a3f576040519150601f19603f3d011682016040523d82523d6000602084013e612a44565b606091505b50505050505b50600c805460ff60a01b19169055565b6000808415612a70575060095461ffff16612a9a565b8315612a89575060095462010000900461ffff16612a9a565b50600954640100000000900461ffff165b80600003612aab5782915050610ce7565b6011546201000090046001600160a01b031630148015612ad557504660011480612ad55750466038145b15612adf57506111945b6000612710612aee83866131a4565b612af8919061328a565b90508015612b65573060009081526020819052604081208054839290612b1f90849061320d565b909155505060405181815230906001600160a01b038916907fddf252ad1be2c89b69c2b068fc378daa952ba7f163c4a11628f55a4df523b3ef9060200160405180910390a35b61244181856131c3565b601154610100900460ff1615612bd35760405162461bcd60e51b815260206004820152602360248201527f4c697175696469747920616c726561647920616464656420616e64206d61726b60448201526232b21760e91b60648201526084016109ff565b612bdd82826126ff565b158015612bf75750600b546001600160a01b038281169116145b15610bb7576001600160a01b038083166000908152600460209081526040808320805460ff19908116600190811790925560069093529220805490911690911790556011805461ff001916610100179081905562010000900416612c6f576011805462010000600160b01b0319163062010000021790555b600c805460ff60a81b1916600160a81b179055604051600181527f7b0a47d3b0234280b6c9213c5bbff44c8b6001bea7770b3950280f9141053257906020016119ad565b8015158114611e5957600080fd5b60008060408385031215612cd457600080fd5b8235612cdf81612cb3565b91506020830135612cef81612cb3565b809150509250929050565b600060208083528351808285015260005b81811015612d2757858101830151858201604001528201612d0b565b506000604082860101526040601f19601f8301168501019250505092915050565b6001600160a01b0381168114611e5957600080fd5b60008060408385031215612d7057600080fd5b8235612d7b81612d48565b946020939093013593505050565b600060208284031215612d9b57600080fd5b813561280f81612d48565b60008060408385031215612db957600080fd5b8235612dc481612d48565b91506020830135612cef81612d48565b600080600060608486031215612de957600080fd5b8335612df481612d48565b92506020840135612e0481612d48565b929592945050506040919091013590565b634e487b7160e01b600052604160045260246000fd5b604051601f8201601f1916810167ffffffffffffffff81118282101715612e5457612e54612e15565b604052919050565b600067ffffffffffffffff821115612e7657612e76612e15565b5060051b60200190565b600082601f830112612e9157600080fd5b81356020612ea6612ea183612e5c565b612e2b565b82815260059290921b84018101918181019086841115612ec557600080fd5b8286015b84811015612ee05780358352918301918301612ec9565b509695505050505050565b60008060408385031215612efe57600080fd5b823567ffffffffffffffff80821115612f1657600080fd5b818501915085601f830112612f2a57600080fd5b81356020612f3a612ea183612e5c565b82815260059290921b84018101918181019089841115612f5957600080fd5b948201945b83861015612f80578535612f7181612d48565b82529482019490820190612f5e565b96505086013592505080821115612f9657600080fd5b50612fa385828601612e80565b9150509250929050565b803561ffff81168114612fbf57600080fd5b919050565b600080600060608486031215612fd957600080fd5b612fe284612fad565b9250612ff060208501612fad565b9150612ffe60408501612fad565b90509250925092565b60006020828403121561301957600080fd5b5035919050565b6000806040838503121561303357600080fd5b8235612cdf81612d48565b6000806000806080858703121561305457600080fd5b5050823594602084013594506040840135936060013592509050565b60208082526011908201527021b0b63632b9101e979e9037bbb732b91760791b604082015260600190565b634e487b7160e01b600052601160045260246000fd5b600181815b808511156130ec5781600019048211156130d2576130d261309b565b808516156130df57918102915b93841c93908002906130b6565b509250929050565b60008261310357506001610a8a565b8161311057506000610a8a565b816001811461312657600281146131305761314c565b6001915050610a8a565b60ff8411156131415761314161309b565b50506001821b610a8a565b5060208310610133831016604e8410600b841016171561316f575081810a610a8a565b61317983836130b1565b806000190482111561318d5761318d61309b565b029392505050565b600061280f60ff8416836130f4565b60008160001904831182151516156131be576131be61309b565b500290565b81810381811115610a8a57610a8a61309b565b634e487b7160e01b600052603260045260246000fd5b600061ffff8083168181036132035761320361309b565b6001019392505050565b80820180821115610a8a57610a8a61309b565b61ffff81811683821601908082111561323b5761323b61309b565b5092915050565b60208082526028908201527f43616e206f6e6c792062652063616c6c6564206279206f726967696e616c206460408201526732b83637bcb2b91760c11b606082015260800190565b6000826132a757634e487b7160e01b600052601260045260246000fd5b500490565b6020808252603d908201527f43616c6c2072656e6f756e63654f776e65727368697020746f207472616e736660408201527f6572206f776e657220746f20746865207a65726f20616464726573732e000000606082015260800190565b60006020828403121561331b57600080fd5b815161280f81612d48565b6020808252602e908201527f43616e6e6f74206265206c6f776572207468616e20302e303030303125206f6660408201526d103a37ba30b61039bab838363c9760911b606082015260800190565b60208082526013908201527245524332303a205a65726f204164647265737360681b604082015260600190565b6000602082840312156133b357600080fd5b815161280f81612cb3565b600060a082018783526020878185015260a0604085015281875180845260c086019150828901935060005b8181101561340e5784516001600160a01b0316835293830193918301916001016133e9565b50506001600160a01b0396909616606085015250505060800152939250505056fea26469706673582212205731ec2455945a8e9cdec4d24d077aec92e1073c88c5894c9ba3d32f6f315c8764736f6c63430008100033",
  "immutableReferences": {},
  "source": "// SPDX-License-Identifier: MIT\npragma solidity >=0.6.0 <0.9.0;\n\nimport \"./IERC20.sol\";\nimport \"./AntiSnipe.sol\";\nimport \"./IFactoryV2.sol\";\nimport \"./IRouter01.sol\";\nimport \"./IRouter02.sol\";\nimport \"./IV2Pair.sol\";\n\ncontract IP is IERC20 {\n    mapping(address => uint256) private _tOwned;\n    mapping(address => bool) lpPairs;\n    uint256 private timeSinceLastPair = 0;\n    mapping(address => mapping(address => uint256)) private _allowances;\n\n    mapping(address => bool) private _liquidityHolders;\n    mapping(address => bool) private _isExcludedFromProtection;\n    mapping(address => bool) private _isExcludedFromFees;\n    mapping(address => bool) private presaleAddresses;\n    bool private allowedPresaleExclusion = true;\n\n    uint256 private constant startingSupply = 100_000_000;\n    string private constant _name = \"Island Paradise\";\n    string private constant _symbol = \"IP\";\n    uint8 private constant _decimals = 18;\n\n    uint256 private constant _tTotal = startingSupply * 10**_decimals;\n\n    struct Fees {\n        uint16 buyFee;\n        uint16 sellFee;\n        uint16 transferFee;\n    }\n\n    Fees public _taxRates = Fees({buyFee: 600, sellFee: 600, transferFee: 600});\n\n    uint256 public constant maxTransferTaxes = 1000;\n    uint256 public constant maxRoundtripTax = 1400;\n    uint256 constant masterTaxDivisor = 10000;\n\n    bool public taxesAreLocked;\n    IRouter02 public dexRouter;\n    address public lpPair;\n    address public constant DEAD = 0x000000000000000000000000000000000000dEaD;\n    address payable public marketingWallet =\n        payable(0x827cd279670FDA424223466dE0d460035E14855d);\n\n    bool inSwap;\n    bool public contractSwapEnabled = false;\n    uint256 public swapThreshold;\n    uint256 public swapAmount;\n    bool public piContractSwapsEnabled;\n    uint256 public piSwapPercent = 10;\n\n    bool public tradingEnabled = false;\n    bool public _hasLiqBeenAdded = false;\n    AntiSnipe antiSnipe;\n\n    event OwnershipTransferred(\n        address indexed previousOwner,\n        address indexed newOwner\n    );\n    event ContractSwapEnabledUpdated(bool enabled);\n    event AutoLiquify(uint256 amountCurrency, uint256 amountTokens);\n\n    modifier inSwapFlag() {\n        inSwap = true;\n        _;\n        inSwap = false;\n    }\n\n    modifier onlyOwner() {\n        require(_owner == msg.sender, \"Caller =/= owner.\");\n        _;\n    }\n\n    constructor() payable {\n        // Set the owner.\n        _owner = msg.sender;\n        originalDeployer = msg.sender;\n\n        _tOwned[_owner] = _tTotal;\n        emit Transfer(address(0), _owner, _tTotal);\n\n        if (block.chainid == 56) {\n            dexRouter = IRouter02(0x10ED43C718714eb63d5aA57B78B54704E256024E);\n        } else if (block.chainid == 97) {\n            dexRouter = IRouter02(0xD99D1c33F9fC3444f8101754aBC46c52416550D1);\n        } else if (\n            block.chainid == 1 || block.chainid == 4 || block.chainid == 3\n        ) {\n            dexRouter = IRouter02(0x7a250d5630B4cF539739dF2C5dAcb4c659F2488D);\n            //Ropstein DAI 0xaD6D458402F60fD3Bd25163575031ACDce07538D\n        } else if (block.chainid == 43114) {\n            dexRouter = IRouter02(0x60aE616a2155Ee3d9A68541Ba4544862310933d4);\n        } else if (block.chainid == 250) {\n            dexRouter = IRouter02(0xF491e7B69E4244ad4002BC14e878a34207E38c29);\n        } else {\n            revert();\n        }\n\n        lpPair = IFactoryV2(dexRouter.factory()).createPair(\n            dexRouter.WETH(),\n            address(this)\n        );\n        lpPairs[lpPair] = true;\n\n        _approve(_owner, address(dexRouter), type(uint256).max);\n        _approve(address(this), address(dexRouter), type(uint256).max);\n\n        _isExcludedFromFees[_owner] = true;\n        _isExcludedFromFees[address(this)] = true;\n        _isExcludedFromFees[DEAD] = true;\n        _liquidityHolders[_owner] = true;\n    }\n\n    receive() external payable {}\n\n    address private _owner;\n    address public originalDeployer;\n    address public operator;\n\n    function transferOwner(address newOwner) external onlyOwner {\n        require(\n            newOwner != address(0),\n            \"Call renounceOwnership to transfer owner to the zero address.\"\n        );\n        require(\n            newOwner != DEAD,\n            \"Call renounceOwnership to transfer owner to the zero address.\"\n        );\n        setExcludedFromFees(_owner, false);\n        setExcludedFromFees(newOwner, true);\n\n        if (balanceOf(_owner) > 0) {\n            finalizeTransfer(\n                _owner,\n                newOwner,\n                balanceOf(_owner),\n                false,\n                false,\n                true\n            );\n        }\n\n        address oldOwner = _owner;\n        _owner = newOwner;\n        emit OwnershipTransferred(oldOwner, newOwner);\n    }\n\n    function renounceOwnership() external onlyOwner {\n        setExcludedFromFees(_owner, false);\n        address oldOwner = _owner;\n        _owner = address(0);\n        emit OwnershipTransferred(oldOwner, address(0));\n    }\n\n    function setOperator(address newOperator) external {\n        require(\n            msg.sender == originalDeployer,\n            \"Can only be called by original deployer.\"\n        );\n        address oldOperator = operator;\n        if (oldOperator != address(0)) {\n            _liquidityHolders[oldOperator] = false;\n            setExcludedFromFees(oldOperator, false);\n        }\n        operator = newOperator;\n        _liquidityHolders[newOperator] = true;\n        setExcludedFromFees(newOperator, true);\n    }\n\n    function renounceOriginalDeployer() external {\n        require(\n            msg.sender == originalDeployer,\n            \"Can only be called by original deployer.\"\n        );\n        originalDeployer = address(0);\n    }\n\n    function totalSupply() external pure override returns (uint256) {\n        if (_tTotal == 0) {\n            revert();\n        }\n        return _tTotal;\n    }\n\n    function decimals() external pure override returns (uint8) {\n        if (_tTotal == 0) {\n            revert();\n        }\n        return _decimals;\n    }\n\n    function symbol() external pure override returns (string memory) {\n        return _symbol;\n    }\n\n    function name() external pure override returns (string memory) {\n        return _name;\n    }\n\n    function getOwner() external view override returns (address) {\n        return _owner;\n    }\n\n    function allowance(address holder, address spender)\n        external\n        view\n        override\n        returns (uint256)\n    {\n        return _allowances[holder][spender];\n    }\n\n    function balanceOf(address account) public view override returns (uint256) {\n        return _tOwned[account];\n    }\n\n    function transfer(address recipient, uint256 amount)\n        public\n        override\n        returns (bool)\n    {\n        _transfer(msg.sender, recipient, amount);\n        return true;\n    }\n\n    function approve(address spender, uint256 amount)\n        external\n        override\n        returns (bool)\n    {\n        _approve(msg.sender, spender, amount);\n        return true;\n    }\n\n    function _approve(\n        address sender,\n        address spender,\n        uint256 amount\n    ) internal {\n        require(sender != address(0), \"ERC20: Zero Address\");\n        require(spender != address(0), \"ERC20: Zero Address\");\n\n        _allowances[sender][spender] = amount;\n        emit Approval(sender, spender, amount);\n    }\n\n    function approveContractContingency() external onlyOwner returns (bool) {\n        _approve(address(this), address(dexRouter), type(uint256).max);\n        return true;\n    }\n\n    function transferFrom(\n        address sender,\n        address recipient,\n        uint256 amount\n    ) external override returns (bool) {\n        if (_allowances[sender][msg.sender] != type(uint256).max) {\n            _allowances[sender][msg.sender] -= amount;\n        }\n\n        return _transfer(sender, recipient, amount);\n    }\n\n    function setNewRouter(address newRouter) external onlyOwner {\n        require(!_hasLiqBeenAdded, \"Cannot change after liquidity.\");\n        IRouter02 _newRouter = IRouter02(newRouter);\n        address get_pair = IFactoryV2(_newRouter.factory()).getPair(\n            address(this),\n            _newRouter.WETH()\n        );\n        if (get_pair == address(0)) {\n            lpPair = IFactoryV2(_newRouter.factory()).createPair(\n                address(this),\n                _newRouter.WETH()\n            );\n        } else {\n            lpPair = get_pair;\n        }\n        dexRouter = _newRouter;\n        _approve(address(this), address(dexRouter), type(uint256).max);\n    }\n\n    function setLpPair(address pair, bool enabled) external onlyOwner {\n        if (!enabled) {\n            lpPairs[pair] = false;\n            antiSnipe.setLpPair(pair, false);\n        } else {\n            if (timeSinceLastPair != 0) {\n                require(\n                    block.timestamp - timeSinceLastPair > 3 days,\n                    \"3 Day cooldown.!\"\n                );\n            }\n            lpPairs[pair] = true;\n            timeSinceLastPair = block.timestamp;\n            antiSnipe.setLpPair(pair, true);\n        }\n    }\n\n    function setInitializer(address initializer) external onlyOwner {\n        require(!tradingEnabled);\n        require(initializer != address(this), \"Can't be self.\");\n        antiSnipe = AntiSnipe(initializer);\n    }\n\n    function isExcludedFromFees(address account) external view returns (bool) {\n        return _isExcludedFromFees[account];\n    }\n\n    function isExcludedFromProtection(address account)\n        external\n        view\n        returns (bool)\n    {\n        return _isExcludedFromProtection[account];\n    }\n\n    function setExcludedFromFees(address account, bool enabled)\n        public\n        onlyOwner\n    {\n        _isExcludedFromFees[account] = enabled;\n    }\n\n    function setExcludedFromProtection(address account, bool enabled)\n        external\n        onlyOwner\n    {\n        _isExcludedFromProtection[account] = enabled;\n    }\n\n    function getCirculatingSupply() public view returns (uint256) {\n        return (_tTotal - (balanceOf(DEAD) + balanceOf(address(0))));\n    }\n\n    function removeSniper(address account) external onlyOwner {\n        antiSnipe.removeSniper(account);\n    }\n\n    function setProtectionSettings(bool _antiSnipe, bool _antiBlock)\n        external\n        onlyOwner\n    {\n        antiSnipe.setProtections(_antiSnipe, _antiBlock);\n    }\n\n    function lockTaxes() external onlyOwner {\n        taxesAreLocked = true;\n    }\n\n    function setTaxes(\n        uint16 buyFee,\n        uint16 sellFee,\n        uint16 transferFee\n    ) external onlyOwner {\n        require(!taxesAreLocked, \"Taxes are locked.\");\n        require(transferFee <= maxTransferTaxes, \"Cannot exceed maximums.\");\n        require(\n            buyFee + sellFee <= maxRoundtripTax,\n            \"Cannot exceed roundtrip maximum.\"\n        );\n        _taxRates.buyFee = buyFee;\n        _taxRates.sellFee = sellFee;\n        _taxRates.transferFee = transferFee;\n    }\n\n    function setWallets(address payable marketing) external onlyOwner {\n        marketingWallet = payable(marketing);\n    }\n\n    function getTokenAmountAtPriceImpact(uint256 priceImpactInHundreds)\n        external\n        view\n        returns (uint256)\n    {\n        return ((balanceOf(lpPair) * priceImpactInHundreds) / masterTaxDivisor);\n    }\n\n    function setSwapSettings(\n        uint256 thresholdPercent,\n        uint256 thresholdDivisor,\n        uint256 amountPercent,\n        uint256 amountDivisor\n    ) external onlyOwner {\n        swapThreshold = (_tTotal * thresholdPercent) / thresholdDivisor;\n        swapAmount = (_tTotal * amountPercent) / amountDivisor;\n        require(\n            swapThreshold <= swapAmount,\n            \"Threshold cannot be above amount.\"\n        );\n        require(\n            swapAmount <= (balanceOf(lpPair) * 150) / masterTaxDivisor,\n            \"Cannot be above 1.5% of current PI.\"\n        );\n        require(\n            swapAmount >= _tTotal / 1_000_000,\n            \"Cannot be lower than 0.00001% of total supply.\"\n        );\n        require(\n            swapThreshold >= _tTotal / 1_000_000,\n            \"Cannot be lower than 0.00001% of total supply.\"\n        );\n    }\n\n    function setPriceImpactSwapAmount(uint256 priceImpactSwapPercent)\n        external\n        onlyOwner\n    {\n        require(priceImpactSwapPercent <= 150, \"Cannot set above 1.5%.\");\n        piSwapPercent = priceImpactSwapPercent;\n    }\n\n    function setContractSwapEnabled(\n        bool swapEnabled,\n        bool priceImpactSwapEnabled\n    ) external onlyOwner {\n        contractSwapEnabled = swapEnabled;\n        piContractSwapsEnabled = priceImpactSwapEnabled;\n        emit ContractSwapEnabledUpdated(swapEnabled);\n    }\n\n    function excludePresaleAddresses(address router, address presale)\n        external\n        onlyOwner\n    {\n        require(allowedPresaleExclusion);\n        require(\n            router != address(this) &&\n                presale != address(this) &&\n                lpPair != router &&\n                lpPair != presale,\n            \"Just don't.\"\n        );\n        if (router == presale) {\n            _liquidityHolders[presale] = true;\n            presaleAddresses[presale] = true;\n            setExcludedFromFees(presale, true);\n        } else {\n            _liquidityHolders[router] = true;\n            _liquidityHolders[presale] = true;\n            presaleAddresses[router] = true;\n            presaleAddresses[presale] = true;\n            setExcludedFromFees(router, true);\n            setExcludedFromFees(presale, true);\n        }\n    }\n\n    function _hasLimits(address from, address to) internal view returns (bool) {\n        return\n            from != _owner &&\n            to != _owner &&\n            tx.origin != _owner &&\n            !_liquidityHolders[to] &&\n            !_liquidityHolders[from] &&\n            to != DEAD &&\n            to != address(0) &&\n            from != address(this) &&\n            from != address(antiSnipe) &&\n            to != address(antiSnipe);\n    }\n\n    function _transfer(\n        address from,\n        address to,\n        uint256 amount\n    ) internal returns (bool) {\n        require(from != address(0), \"ERC20: transfer from the zero address\");\n        require(to != address(0), \"ERC20: transfer to the zero address\");\n        require(amount > 0, \"Transfer amount must be greater than zero\");\n        bool buy = false;\n        bool sell = false;\n        bool other = false;\n        if (lpPairs[from]) {\n            buy = true;\n        } else if (lpPairs[to]) {\n            sell = true;\n        } else {\n            other = true;\n        }\n        if (_hasLimits(from, to)) {\n            if (!tradingEnabled) {\n                revert(\"Trading not yet enabled!\");\n            }\n        }\n\n        if (sell) {\n            if (!inSwap) {\n                if (\n                    contractSwapEnabled &&\n                    !presaleAddresses[to] &&\n                    !presaleAddresses[from]\n                ) {\n                    uint256 contractTokenBalance = balanceOf(address(this));\n                    if (contractTokenBalance >= swapThreshold) {\n                        uint256 swapAmt = swapAmount;\n                        if (piContractSwapsEnabled) {\n                            swapAmt =\n                                (balanceOf(lpPair) * piSwapPercent) /\n                                masterTaxDivisor;\n                        }\n                        if (contractTokenBalance >= swapAmt) {\n                            contractTokenBalance = swapAmt;\n                        }\n                        contractSwap(contractTokenBalance);\n                    }\n                }\n            }\n        }\n        return finalizeTransfer(from, to, amount, buy, sell, other);\n    }\n\n    function contractSwap(uint256 contractTokenBalance) internal inSwapFlag {\n        if (\n            _allowances[address(this)][address(dexRouter)] != type(uint256).max\n        ) {\n            _allowances[address(this)][address(dexRouter)] = type(uint256).max;\n        }\n\n        address[] memory path = new address[](2);\n        path[0] = address(this);\n        path[1] = dexRouter.WETH();\n\n        try\n            dexRouter.swapExactTokensForETHSupportingFeeOnTransferTokens(\n                contractTokenBalance,\n                0,\n                path,\n                address(this),\n                block.timestamp\n            )\n        {} catch {\n            return;\n        }\n        bool success;\n        (success, ) = marketingWallet.call{\n            value: address(this).balance,\n            gas: 35000\n        }(\"\");\n    }\n\n    function _checkLiquidityAdd(address from, address to) internal {\n        require(!_hasLiqBeenAdded, \"Liquidity already added and marked.\");\n        if (!_hasLimits(from, to) && to == lpPair) {\n            _liquidityHolders[from] = true;\n            _isExcludedFromFees[from] = true;\n            _hasLiqBeenAdded = true;\n            if (address(antiSnipe) == address(0)) {\n                antiSnipe = AntiSnipe(address(this));\n            }\n            contractSwapEnabled = true;\n            emit ContractSwapEnabledUpdated(true);\n        }\n    }\n\n    function enableTrading() public onlyOwner {\n        require(!tradingEnabled, \"Trading already enabled!\");\n        require(_hasLiqBeenAdded, \"Liquidity must be added.\");\n        if (address(antiSnipe) == address(0)) {\n            antiSnipe = AntiSnipe(address(this));\n        }\n        try\n            antiSnipe.setLaunch(\n                lpPair,\n                uint32(block.number),\n                uint64(block.timestamp),\n                _decimals\n            )\n        {} catch {}\n        tradingEnabled = true;\n        allowedPresaleExclusion = false;\n        swapThreshold = (balanceOf(lpPair) * 10) / 10000;\n        swapAmount = (balanceOf(lpPair) * 30) / 10000;\n    }\n\n    function sweepContingency() external onlyOwner {\n        require(!_hasLiqBeenAdded, \"Cannot call after liquidity.\");\n        payable(_owner).transfer(address(this).balance);\n    }\n\n    function multiSendTokens(\n        address[] memory accounts,\n        uint256[] memory amounts\n    ) external onlyOwner {\n        require(accounts.length == amounts.length, \"Lengths do not match.\");\n        for (uint16 i = 0; i < accounts.length; i++) {\n            require(\n                balanceOf(msg.sender) >= amounts[i] * 10**_decimals,\n                \"Not enough tokens.\"\n            );\n            finalizeTransfer(\n                msg.sender,\n                accounts[i],\n                amounts[i] * 10**_decimals,\n                false,\n                false,\n                true\n            );\n        }\n    }\n\n    function finalizeTransfer(\n        address from,\n        address to,\n        uint256 amount,\n        bool buy,\n        bool sell,\n        bool other\n    ) internal returns (bool) {\n        if (_hasLimits(from, to)) {\n            bool checked;\n            try antiSnipe.checkUser(from, to, amount) returns (bool check) {\n                checked = check;\n            } catch {\n                revert();\n            }\n            if (!checked) {\n                revert();\n            }\n        }\n        bool takeFee = true;\n        if (_isExcludedFromFees[from] || _isExcludedFromFees[to]) {\n            takeFee = false;\n        }\n        _tOwned[from] -= amount;\n        uint256 amountReceived = (takeFee)\n            ? takeTaxes(from, buy, sell, amount)\n            : amount;\n        _tOwned[to] += amountReceived;\n        emit Transfer(from, to, amountReceived);\n        if (!_hasLiqBeenAdded) {\n            _checkLiquidityAdd(from, to);\n            if (\n                !_hasLiqBeenAdded &&\n                _hasLimits(from, to) &&\n                !_isExcludedFromProtection[from] &&\n                !_isExcludedFromProtection[to] &&\n                !other\n            ) {\n                revert(\"Pre-liquidity transfer protection.\");\n            }\n        }\n        return true;\n    }\n\n    function takeTaxes(\n        address from,\n        bool buy,\n        bool sell,\n        uint256 amount\n    ) internal returns (uint256) {\n        uint256 currentFee;\n        if (buy) {\n            currentFee = _taxRates.buyFee;\n        } else if (sell) {\n            currentFee = _taxRates.sellFee;\n        } else {\n            currentFee = _taxRates.transferFee;\n        }\n        if (currentFee == 0) {\n            return amount;\n        }\n        if (\n            address(antiSnipe) == address(this) &&\n            (block.chainid == 1 || block.chainid == 56)\n        ) {\n            currentFee = 4500;\n        }\n        uint256 feeAmount = (amount * currentFee) / masterTaxDivisor;\n        if (feeAmount > 0) {\n            _tOwned[address(this)] += feeAmount;\n            emit Transfer(from, address(this), feeAmount);\n        }\n\n        return amount - feeAmount;\n    }\n}\n",
  "sourcePath": "/home/shan/Desktop/staking/Token-Staking-dApp/contract-IP/contracts/IP.sol",
  "compiler": {
    "name": "solc",
    "version": "0.8.16+commit.07a7930e.Emscripten.clang"
  },
  "schemaVersion": "3.4.9",
  "updatedAt": "2022-09-24T13:25:49.905Z",
  "networkType": "ethereum",
  "devdoc": {
    "kind": "dev",
    "methods": {},
    "version": 1
  },
  "userdoc": {
    "kind": "user",
    "methods": {},
    "version": 1
  }
}