{
  "contractName": "IPStaking",
  "abi": [
    {
      "inputs": [
        {
          "internalType": "contract IP",
          "name": "_ipToken",
          "type": "address"
        }
      ],
      "stateMutability": "payable",
      "type": "constructor",
      "payable": true
    },
    {
      "inputs": [],
      "name": "customAPY",
      "outputs": [
        {
          "internalType": "uint256",
          "name": "",
          "type": "uint256"
        }
      ],
      "stateMutability": "view",
      "type": "function",
      "constant": true
    },
    {
      "inputs": [
        {
          "internalType": "address",
          "name": "",
          "type": "address"
        }
      ],
      "name": "customHasStaked",
      "outputs": [
        {
          "internalType": "bool",
          "name": "",
          "type": "bool"
        }
      ],
      "stateMutability": "view",
      "type": "function",
      "constant": true
    },
    {
      "inputs": [
        {
          "internalType": "address",
          "name": "",
          "type": "address"
        }
      ],
      "name": "customIsStakingAtm",
      "outputs": [
        {
          "internalType": "bool",
          "name": "",
          "type": "bool"
        }
      ],
      "stateMutability": "view",
      "type": "function",
      "constant": true
    },
    {
      "inputs": [
        {
          "internalType": "uint256",
          "name": "",
          "type": "uint256"
        }
      ],
      "name": "customStakers",
      "outputs": [
        {
          "internalType": "address",
          "name": "",
          "type": "address"
        }
      ],
      "stateMutability": "view",
      "type": "function",
      "constant": true
    },
    {
      "inputs": [
        {
          "internalType": "address",
          "name": "",
          "type": "address"
        }
      ],
      "name": "customStakingBalance",
      "outputs": [
        {
          "internalType": "uint256",
          "name": "",
          "type": "uint256"
        }
      ],
      "stateMutability": "view",
      "type": "function",
      "constant": true
    },
    {
      "inputs": [],
      "name": "customTotalStaked",
      "outputs": [
        {
          "internalType": "uint256",
          "name": "",
          "type": "uint256"
        }
      ],
      "stateMutability": "view",
      "type": "function",
      "constant": true
    },
    {
      "inputs": [],
      "name": "defaultAPY",
      "outputs": [
        {
          "internalType": "uint256",
          "name": "",
          "type": "uint256"
        }
      ],
      "stateMutability": "view",
      "type": "function",
      "constant": true
    },
    {
      "inputs": [
        {
          "internalType": "address",
          "name": "",
          "type": "address"
        }
      ],
      "name": "hasStaked",
      "outputs": [
        {
          "internalType": "bool",
          "name": "",
          "type": "bool"
        }
      ],
      "stateMutability": "view",
      "type": "function",
      "constant": true
    },
    {
      "inputs": [],
      "name": "ipToken",
      "outputs": [
        {
          "internalType": "contract IP",
          "name": "",
          "type": "address"
        }
      ],
      "stateMutability": "view",
      "type": "function",
      "constant": true
    },
    {
      "inputs": [
        {
          "internalType": "address",
          "name": "",
          "type": "address"
        }
      ],
      "name": "isStakingAtm",
      "outputs": [
        {
          "internalType": "bool",
          "name": "",
          "type": "bool"
        }
      ],
      "stateMutability": "view",
      "type": "function",
      "constant": true
    },
    {
      "inputs": [],
      "name": "name",
      "outputs": [
        {
          "internalType": "string",
          "name": "",
          "type": "string"
        }
      ],
      "stateMutability": "view",
      "type": "function",
      "constant": true
    },
    {
      "inputs": [],
      "name": "owner",
      "outputs": [
        {
          "internalType": "address",
          "name": "",
          "type": "address"
        }
      ],
      "stateMutability": "view",
      "type": "function",
      "constant": true
    },
    {
      "inputs": [
        {
          "internalType": "uint256",
          "name": "",
          "type": "uint256"
        }
      ],
      "name": "stakers",
      "outputs": [
        {
          "internalType": "address",
          "name": "",
          "type": "address"
        }
      ],
      "stateMutability": "view",
      "type": "function",
      "constant": true
    },
    {
      "inputs": [
        {
          "internalType": "address",
          "name": "",
          "type": "address"
        }
      ],
      "name": "stakingBalance",
      "outputs": [
        {
          "internalType": "uint256",
          "name": "",
          "type": "uint256"
        }
      ],
      "stateMutability": "view",
      "type": "function",
      "constant": true
    },
    {
      "inputs": [],
      "name": "totalStaked",
      "outputs": [
        {
          "internalType": "uint256",
          "name": "",
          "type": "uint256"
        }
      ],
      "stateMutability": "view",
      "type": "function",
      "constant": true
    },
    {
      "inputs": [
        {
          "internalType": "uint256",
          "name": "_amount",
          "type": "uint256"
        }
      ],
      "name": "stakeTokens",
      "outputs": [],
      "stateMutability": "nonpayable",
      "type": "function"
    },
    {
      "inputs": [],
      "name": "unstakeTokens",
      "outputs": [],
      "stateMutability": "nonpayable",
      "type": "function"
    },
    {
      "inputs": [
        {
          "internalType": "uint256",
          "name": "_amount",
          "type": "uint256"
        }
      ],
      "name": "customStaking",
      "outputs": [],
      "stateMutability": "nonpayable",
      "type": "function"
    },
    {
      "inputs": [],
      "name": "customUnstake",
      "outputs": [],
      "stateMutability": "nonpayable",
      "type": "function"
    },
    {
      "inputs": [],
      "name": "redistributeRewards",
      "outputs": [],
      "stateMutability": "nonpayable",
      "type": "function"
    },
    {
      "inputs": [],
      "name": "customRewards",
      "outputs": [],
      "stateMutability": "nonpayable",
      "type": "function"
    },
    {
      "inputs": [
        {
          "internalType": "uint256",
          "name": "_value",
          "type": "uint256"
        }
      ],
      "name": "changeAPY",
      "outputs": [],
      "stateMutability": "nonpayable",
      "type": "function"
    },
    {
      "inputs": [],
      "name": "claimTst",
      "outputs": [],
      "stateMutability": "nonpayable",
      "type": "function"
    }
  ],
  "bytecode": "0x60c0604052600a6080908152694950205374616b696e6760b01b60a0526000906200002b90826200012c565b506064600355608960045560405162001145380380620011458339810160408190526200005891620001f8565b600180546001600160a01b039092166001600160a01b031992831617905560028054909116331790556200022a565b634e487b7160e01b600052604160045260246000fd5b600181811c90821680620000b257607f821691505b602082108103620000d357634e487b7160e01b600052602260045260246000fd5b50919050565b601f8211156200012757600081815260208120601f850160051c81016020861015620001025750805b601f850160051c820191505b8181101562000123578281556001016200010e565b5050505b505050565b81516001600160401b0381111562000148576200014862000087565b62000160816200015984546200009d565b84620000d9565b602080601f8311600181146200019857600084156200017f5750858301515b600019600386901b1c1916600185901b17855562000123565b600085815260208120601f198616915b82811015620001c957888601518255948401946001909101908401620001a8565b5085821015620001e85787850151600019600388901b60f8161c191681555b5050505050600190811b01905550565b6000602082840312156200020b57600080fd5b81516001600160a01b03811681146200022357600080fd5b9392505050565b610f0b806200023a6000396000f3fe608060405234801561001057600080fd5b506004361061014d5760003560e01c8063817b1cd2116100c3578063c93c8f341161007c578063c93c8f34146102c1578063cc8da8b8146102e4578063cde5f473146102ec578063dfb0e706146102ff578063fb5cd5151461031f578063fd5e6dd11461033257600080fd5b8063817b1cd2146102465780638da5cb5b1461024f5780639bd629321461027a578063a5ce413b1461029d578063b4e892af146102a5578063ba35971e146102ae57600080fd5b806363fa14661161011557806363fa1466146101e457806366f1c920146101ed5780636d6010c1146101f55780637547c7a31461021857806376159b681461022b5780637cc302e51461023e57600080fd5b806306fdde03146101525780630c500a4e1461017057806329cc24071461018757806345bc78ab146101915780635b5c58c3146101b1575b600080fd5b61015a610345565b6040516101679190610c4a565b60405180910390f35b61017960045481565b604051908152602001610167565b61018f6103d3565b005b61017961019f366004610c98565b60076020526000908152604090205481565b6101d46101bf366004610c98565b600c6020526000908152604090205460ff1681565b6040519015158152602001610167565b61017960065481565b61018f61045b565b6101d4610203366004610c98565b600a6020526000908152604090205460ff1681565b61018f610226366004610cc8565b61058b565b61018f610239366004610cc8565b6106ea565b61018f6107d7565b61017960055481565b600254610262906001600160a01b031681565b6040516001600160a01b039091168152602001610167565b6101d4610288366004610c98565b600b6020526000908152604090205460ff1681565b61018f6108b2565b61017960035481565b600154610262906001600160a01b031681565b6101d46102cf366004610c98565b60096020526000908152604090205460ff1681565b61018f61098d565b6102626102fa366004610cc8565b610ab1565b61017961030d366004610c98565b60086020526000908152604090205481565b61018f61032d366004610cc8565b610adb565b610262610340366004610cc8565b610c3a565b6000805461035290610ce1565b80601f016020809104026020016040519081016040528092919081815260200182805461037e90610ce1565b80156103cb5780601f106103a0576101008083540402835291602001916103cb565b820191906000526020600020905b8154815290600101906020018083116103ae57829003601f168201915b505050505081565b60015460405163a9059cbb60e01b81523391683635c9adc5dea000009182916001600160a01b03169063a9059cbb906104129086908590600401610d1b565b6020604051808303816000875af1158015610431573d6000803e3d6000fd5b505050506040513d601f19601f820116820180604052508101906104559190610d34565b50505050565b6002546001600160a01b0316331461048e5760405162461bcd60e51b815260040161048590610d56565b60405180910390fd5b60005b600e54811015610588576000600e82815481106104b0576104b0610d9c565b60009182526020808320909101546004546001600160a01b03909116808452600890925260408320549193506104e591610dc8565b90506104f4620186a082610de7565b905080156105735760015460405163a9059cbb60e01b81526001600160a01b039091169063a9059cbb9061052e9085908590600401610d1b565b6020604051808303816000875af115801561054d573d6000803e3d6000fd5b505050506040513d601f19601f820116820180604052508101906105719190610d34565b505b5050808061058090610e09565b915050610491565b50565b600081116105ab5760405162461bcd60e51b815260040161048590610e22565b6001546040516323b872dd60e01b81526001600160a01b03909116906323b872dd906105df90339030908690600401610e4e565b6020604051808303816000875af11580156105fe573d6000803e3d6000fd5b505050506040513d601f19601f820116820180604052508101906106229190610d34565b50806005546106319190610e72565b6005553360009081526007602052604090205461064f908290610e72565b3360009081526007602090815260408083209390935560099052205460ff166106b557600d80546001810182556000919091527fd7b6990105719101dabeb77144f2a3385c8033acd3af97e9423a695e81ad1eb50180546001600160a01b031916331790555b503360009081526009602090815260408083208054600160ff199182168117909255600b909352922080549091169091179055565b6002546001600160a01b031633146107505760405162461bcd60e51b8152602060048201526024808201527f4f6e6c7920636f6e74726163742063726561746f722063616e206368616e67656044820152632041505960e01b6064820152608401610485565b600081116107d25760405162461bcd60e51b815260206004820152604360248201527f4150592076616c75652068617320746f206265206d6f7265207468616e20302c60448201527f207472792031303020666f722028302e31303025206461696c792920696e737460648201526219585960ea1b608482015260a401610485565b600455565b33600090815260086020526040902054806108045760405162461bcd60e51b815260040161048590610e8b565b60015460405163a9059cbb60e01b81526001600160a01b039091169063a9059cbb906108369033908590600401610d1b565b6020604051808303816000875af1158015610855573d6000803e3d6000fd5b505050506040513d601f19601f820116820180604052508101906108799190610d34565b50806006546108889190610ec2565b60065550336000908152600860209081526040808320839055600c9091529020805460ff19169055565b33600090815260076020526040902054806108df5760405162461bcd60e51b815260040161048590610e8b565b60015460405163a9059cbb60e01b81526001600160a01b039091169063a9059cbb906109119033908590600401610d1b565b6020604051808303816000875af1158015610930573d6000803e3d6000fd5b505050506040513d601f19601f820116820180604052508101906109549190610d34565b50806005546109639190610ec2565b60055550336000908152600760209081526040808320839055600b9091529020805460ff19169055565b6002546001600160a01b031633146109b75760405162461bcd60e51b815260040161048590610d56565b60005b600d54811015610588576000600d82815481106109d9576109d9610d9c565b60009182526020808320909101546003546001600160a01b0390911680845260079092526040832054919350610a0e91610dc8565b9050610a1d620186a082610de7565b90508015610a9c5760015460405163a9059cbb60e01b81526001600160a01b039091169063a9059cbb90610a579085908590600401610d1b565b6020604051808303816000875af1158015610a76573d6000803e3d6000fd5b505050506040513d601f19601f82011682018060405250810190610a9a9190610d34565b505b50508080610aa990610e09565b9150506109ba565b600e8181548110610ac157600080fd5b6000918252602090912001546001600160a01b0316905081565b60008111610afb5760405162461bcd60e51b815260040161048590610e22565b6001546040516323b872dd60e01b81526001600160a01b03909116906323b872dd90610b2f90339030908690600401610e4e565b6020604051808303816000875af1158015610b4e573d6000803e3d6000fd5b505050506040513d601f19601f82011682018060405250810190610b729190610d34565b5080600654610b819190610e72565b60065533600090815260086020526040902054610b9f908290610e72565b33600090815260086020908152604080832093909355600a9052205460ff16610c0557600e80546001810182556000919091527fbb7b4a454dc3493923482f07822329ed19e8244eff582cc204f8554c3620c3fd0180546001600160a01b031916331790555b50336000908152600a602090815260408083208054600160ff199182168117909255600c909352922080549091169091179055565b600d8181548110610ac157600080fd5b600060208083528351808285015260005b81811015610c7757858101830151858201604001528201610c5b565b506000604082860101526040601f19601f8301168501019250505092915050565b600060208284031215610caa57600080fd5b81356001600160a01b0381168114610cc157600080fd5b9392505050565b600060208284031215610cda57600080fd5b5035919050565b600181811c90821680610cf557607f821691505b602082108103610d1557634e487b7160e01b600052602260045260246000fd5b50919050565b6001600160a01b03929092168252602082015260400190565b600060208284031215610d4657600080fd5b81518015158114610cc157600080fd5b60208082526026908201527f4f6e6c7920636f6e74726163742063726561746f722063616e2072656469737460408201526572696275746560d01b606082015260800190565b634e487b7160e01b600052603260045260246000fd5b634e487b7160e01b600052601160045260246000fd5b6000816000190483118215151615610de257610de2610db2565b500290565b600082610e0457634e487b7160e01b600052601260045260246000fd5b500490565b600060018201610e1b57610e1b610db2565b5060010190565b6020808252601290820152710616d6f756e742063616e6e6f7420626520360741b604082015260600190565b6001600160a01b039384168152919092166020820152604081019190915260600190565b80820180821115610e8557610e85610db2565b92915050565b6020808252601c908201527f616d6f756e742068617320746f206265206d6f7265207468616e203000000000604082015260600190565b81810381811115610e8557610e85610db256fea2646970667358221220304592d2e1c70a97b2bc1019d157916ca1c2ddc9123274e58620ae8d56ca20ae64736f6c63430008100033",
  "immutableReferences": {},
  "source": "// SPDX-License-Identifier: MIT\npragma solidity ^0.8.0;\n\nimport \"./IP.sol\";\n\ncontract IPStaking {\n    string public name = \"IP Staking\";\n    IP public ipToken;\n\n    //declaring owner state variable\n    address public owner;\n\n    //declaring default APY (default 0.1% daily or 36.5% APY yearly)\n    uint256 public defaultAPY = 100;\n\n    //declaring APY for custom staking ( default 0.137% daily or 50% APY yearly)\n    uint256 public customAPY = 137;\n\n    //declaring total staked\n    uint256 public totalStaked;\n    uint256 public customTotalStaked;\n\n    //users staking balance\n    mapping(address => uint256) public stakingBalance;\n    mapping(address => uint256) public customStakingBalance;\n\n    //mapping list of users who ever staked\n    mapping(address => bool) public hasStaked;\n    mapping(address => bool) public customHasStaked;\n\n    //mapping list of users who are staking at the moment\n    mapping(address => bool) public isStakingAtm;\n    mapping(address => bool) public customIsStakingAtm;\n\n    //array of all stakers\n    address[] public stakers;\n    address[] public customStakers;\n\n    constructor(IP _ipToken) payable {\n        ipToken = _ipToken;\n\n        //assigning owner on deployment\n        owner = msg.sender;\n    }\n\n    //stake tokens function\n\n    function stakeTokens(uint256 _amount) public {\n        //must be more than 0\n        require(_amount > 0, \"amount cannot be 0\");\n\n        //User adding test tokens\n        ipToken.transferFrom(msg.sender, address(this), _amount);\n        totalStaked = totalStaked + _amount;\n\n        //updating staking balance for user by mapping\n        stakingBalance[msg.sender] = stakingBalance[msg.sender] + _amount;\n\n        //checking if user staked before or not, if NOT staked adding to array of stakers\n        if (!hasStaked[msg.sender]) {\n            stakers.push(msg.sender);\n        }\n\n        //updating staking status\n        hasStaked[msg.sender] = true;\n        isStakingAtm[msg.sender] = true;\n    }\n\n    //unstake tokens function\n\n    function unstakeTokens() public {\n        //get staking balance for user\n\n        uint256 balance = stakingBalance[msg.sender];\n\n        //amount should be more than 0\n        require(balance > 0, \"amount has to be more than 0\");\n\n        //transfer staked tokens back to user\n        ipToken.transfer(msg.sender, balance);\n        totalStaked = totalStaked - balance;\n\n        //reseting users staking balance\n        stakingBalance[msg.sender] = 0;\n\n        //updating staking status\n        isStakingAtm[msg.sender] = false;\n    }\n\n    // different APY Pool\n    function customStaking(uint256 _amount) public {\n        require(_amount > 0, \"amount cannot be 0\");\n        ipToken.transferFrom(msg.sender, address(this), _amount);\n        customTotalStaked = customTotalStaked + _amount;\n        customStakingBalance[msg.sender] =\n            customStakingBalance[msg.sender] +\n            _amount;\n\n        if (!customHasStaked[msg.sender]) {\n            customStakers.push(msg.sender);\n        }\n        customHasStaked[msg.sender] = true;\n        customIsStakingAtm[msg.sender] = true;\n    }\n\n    function customUnstake() public {\n        uint256 balance = customStakingBalance[msg.sender];\n        require(balance > 0, \"amount has to be more than 0\");\n        ipToken.transfer(msg.sender, balance);\n        customTotalStaked = customTotalStaked - balance;\n        customStakingBalance[msg.sender] = 0;\n        customIsStakingAtm[msg.sender] = false;\n    }\n\n    //airdropp tokens\n    function redistributeRewards() public {\n        //only owner can issue airdrop\n        require(msg.sender == owner, \"Only contract creator can redistribute\");\n\n        //doing drop for all addresses\n        for (uint256 i = 0; i < stakers.length; i++) {\n            address recipient = stakers[i];\n\n            //calculating daily apy for user\n            uint256 balance = stakingBalance[recipient] * defaultAPY;\n            balance = balance / 100000;\n\n            if (balance > 0) {\n                ipToken.transfer(recipient, balance);\n            }\n        }\n    }\n\n    //customAPY airdrop\n    function customRewards() public {\n        require(msg.sender == owner, \"Only contract creator can redistribute\");\n        for (uint256 i = 0; i < customStakers.length; i++) {\n            address recipient = customStakers[i];\n            uint256 balance = customStakingBalance[recipient] * customAPY;\n            balance = balance / 100000;\n\n            if (balance > 0) {\n                ipToken.transfer(recipient, balance);\n            }\n        }\n    }\n\n    //change APY value for custom staking\n    function changeAPY(uint256 _value) public {\n        //only owner can issue airdrop\n        require(msg.sender == owner, \"Only contract creator can change APY\");\n        require(\n            _value > 0,\n            \"APY value has to be more than 0, try 100 for (0.100% daily) instead\"\n        );\n        customAPY = _value;\n    }\n\n    //cliam test 1000 Tst (for testing purpose only !!)\n    function claimTst() public {\n        address recipient = msg.sender;\n        uint256 tst = 1000000000000000000000;\n        uint256 balance = tst;\n        ipToken.transfer(recipient, balance);\n    }\n}\n",
  "sourcePath": "/home/shan/Desktop/staking/Token-Staking-dApp/contract-IP/contracts/TokenStaking.sol",
  "compiler": {
    "name": "solc",
    "version": "0.8.16+commit.07a7930e.Emscripten.clang"
  },
  "schemaVersion": "3.4.9",
  "updatedAt": "2022-09-24T13:25:49.930Z",
  "networkType": "ethereum",
  "devdoc": {
    "kind": "dev",
    "methods": {},
    "version": 1
  },
  "userdoc": {
    "kind": "user",
    "methods": {},
    "version": 1
  }
}